{
  "contractName": "MainContract",
  "abi": [
    {
      "constant": true,
      "inputs": [
        {
          "name": "",
          "type": "uint256"
        }
      ],
      "name": "hashes",
      "outputs": [
        {
          "name": "",
          "type": "string"
        }
      ],
      "payable": false,
      "stateMutability": "view",
      "type": "function",
      "signature": "0x501895ae"
    },
    {
      "anonymous": false,
      "inputs": [
        {
          "indexed": false,
          "name": "docHash",
          "type": "string"
        },
        {
          "indexed": false,
          "name": "userAddress",
          "type": "address"
        },
        {
          "indexed": false,
          "name": "status",
          "type": "uint256"
        }
      ],
      "name": "AddNewFile",
      "type": "event",
      "signature": "0xcb0350340ab60d34e10e6ee459109f7c55febf930dfc9e3be704dd0e52ce32b7"
    },
    {
      "constant": false,
      "inputs": [
        {
          "name": "userAddress",
          "type": "address"
        },
        {
          "name": "docHash",
          "type": "string"
        }
      ],
      "name": "newSubmission",
      "outputs": [],
      "payable": false,
      "stateMutability": "nonpayable",
      "type": "function",
      "signature": "0x45d44042"
    },
    {
      "constant": true,
      "inputs": [
        {
          "name": "docHash",
          "type": "string"
        }
      ],
      "name": "isPresent",
      "outputs": [
        {
          "name": "",
          "type": "bool"
        }
      ],
      "payable": false,
      "stateMutability": "view",
      "type": "function",
      "signature": "0xbc548275"
    },
    {
      "constant": true,
      "inputs": [
        {
          "name": "userAddress",
          "type": "address"
        },
        {
          "name": "h",
          "type": "string"
        }
      ],
      "name": "isOwner",
      "outputs": [
        {
          "name": "",
          "type": "bool"
        }
      ],
      "payable": false,
      "stateMutability": "view",
      "type": "function",
      "signature": "0xcd379964"
    },
    {
      "constant": true,
      "inputs": [
        {
          "name": "num",
          "type": "uint256"
        }
      ],
      "name": "displayHash",
      "outputs": [
        {
          "name": "",
          "type": "string"
        }
      ],
      "payable": false,
      "stateMutability": "view",
      "type": "function",
      "signature": "0xa00e68ed"
    },
    {
      "constant": true,
      "inputs": [
        {
          "name": "docHash",
          "type": "string"
        }
      ],
      "name": "displaySubmissionStatus",
      "outputs": [
        {
          "name": "status",
          "type": "uint256"
        }
      ],
      "payable": false,
      "stateMutability": "view",
      "type": "function",
      "signature": "0xf8b0e9a1"
    },
    {
      "constant": true,
      "inputs": [],
      "name": "displayDocCount",
      "outputs": [
        {
          "name": "",
          "type": "uint256"
        }
      ],
      "payable": false,
      "stateMutability": "view",
      "type": "function",
      "signature": "0xe2bba0f9"
    },
    {
      "constant": false,
      "inputs": [
        {
          "name": "docHash",
          "type": "string"
        },
        {
          "name": "reviewer",
          "type": "address"
        }
      ],
      "name": "Review",
      "outputs": [],
      "payable": false,
      "stateMutability": "nonpayable",
      "type": "function",
      "signature": "0x95a2341a"
    },
    {
      "constant": true,
      "inputs": [
        {
          "name": "docHash",
          "type": "string"
        },
        {
          "name": "addr",
          "type": "address"
        }
      ],
      "name": "hasReviewed",
      "outputs": [
        {
          "name": "",
          "type": "bool"
        }
      ],
      "payable": false,
      "stateMutability": "view",
      "type": "function",
      "signature": "0x80fcd817"
    },
    {
      "constant": true,
      "inputs": [
        {
          "name": "docHash",
          "type": "string"
        }
      ],
      "name": "isReviewed",
      "outputs": [
        {
          "name": "",
          "type": "bool"
        }
      ],
      "payable": false,
      "stateMutability": "view",
      "type": "function",
      "signature": "0xd501bba1"
    },
    {
      "constant": true,
      "inputs": [
        {
          "name": "docHash",
          "type": "string"
        }
      ],
      "name": "getCount",
      "outputs": [
        {
          "name": "",
          "type": "uint256"
        }
      ],
      "payable": false,
      "stateMutability": "view",
      "type": "function",
      "signature": "0xf001a551"
    },
    {
      "constant": false,
      "inputs": [
        {
          "name": "r",
          "type": "uint256"
        },
        {
          "name": "docHash",
          "type": "string"
        }
      ],
      "name": "setRating",
      "outputs": [],
      "payable": false,
      "stateMutability": "nonpayable",
      "type": "function",
      "signature": "0x9bc3b2d9"
    },
    {
      "constant": true,
      "inputs": [
        {
          "name": "docHash",
          "type": "string"
        }
      ],
      "name": "getRating",
      "outputs": [
        {
          "name": "",
          "type": "uint256"
        }
      ],
      "payable": false,
      "stateMutability": "view",
      "type": "function",
      "signature": "0xf8326a5e"
    },
    {
      "constant": false,
      "inputs": [
        {
          "name": "docHash",
          "type": "string"
        }
      ],
      "name": "setCost",
      "outputs": [],
      "payable": false,
      "stateMutability": "nonpayable",
      "type": "function",
      "signature": "0x6e97e4a8"
    },
    {
      "constant": true,
      "inputs": [
        {
          "name": "docHash",
          "type": "string"
        }
      ],
      "name": "getCost",
      "outputs": [
        {
          "name": "",
          "type": "uint256"
        }
      ],
      "payable": false,
      "stateMutability": "view",
      "type": "function",
      "signature": "0x9ca3c29c"
    }
  ],
  "bytecode": "0x608060405234801561001057600080fd5b50611cf9806100206000396000f3fe608060405234801561001057600080fd5b5060043610610112576000357c010000000000000000000000000000000000000000000000000000000090048063a00e68ed116100b4578063e2bba0f911610083578063e2bba0f9146109f6578063f001a55114610a14578063f8326a5e14610ae3578063f8b0e9a114610bb257610112565b8063a00e68ed146106b6578063bc5482751461075d578063cd37996414610830578063d501bba11461092357610112565b806380fcd817116100f057806380fcd8171461035457806395a2341a146104475780639bc3b2d9146105225780639ca3c29c146105e757610112565b806345d4404214610117578063501895ae146101f25780636e97e4a814610299575b600080fd5b6101f06004803603604081101561012d57600080fd5b81019080803573ffffffffffffffffffffffffffffffffffffffff1690602001909291908035906020019064010000000081111561016a57600080fd5b82018360208201111561017c57600080fd5b8035906020019184600183028401116401000000008311171561019e57600080fd5b91908080601f016020809104026020016040519081016040528093929190818152602001838380828437600081840152601f19601f820116905080830192505050505050509192919290505050610c81565b005b61021e6004803603602081101561020857600080fd5b8101908080359060200190929190505050610f3c565b6040518080602001828103825283818151815260200191508051906020019080838360005b8381101561025e578082015181840152602081019050610243565b50505050905090810190601f16801561028b5780820380516001836020036101000a031916815260200191505b509250505060405180910390f35b610352600480360360208110156102af57600080fd5b81019080803590602001906401000000008111156102cc57600080fd5b8201836020820111156102de57600080fd5b8035906020019184600183028401116401000000008311171561030057600080fd5b91908080601f016020809104026020016040519081016040528093929190818152602001838380828437600081840152601f19601f820116905080830192505050505050509192919290505050610ff7565b005b61042d6004803603604081101561036a57600080fd5b810190808035906020019064010000000081111561038757600080fd5b82018360208201111561039957600080fd5b803590602001918460018302840111640100000000831117156103bb57600080fd5b91908080601f016020809104026020016040519081016040528093929190818152602001838380828437600081840152601f19601f820116905080830192505050505050509192919290803573ffffffffffffffffffffffffffffffffffffffff169060200190929190505050611176565b604051808215151515815260200191505060405180910390f35b6105206004803603604081101561045d57600080fd5b810190808035906020019064010000000081111561047a57600080fd5b82018360208201111561048c57600080fd5b803590602001918460018302840111640100000000831117156104ae57600080fd5b91908080601f016020809104026020016040519081016040528093929190818152602001838380828437600081840152601f19601f820116905080830192505050505050509192919290803573ffffffffffffffffffffffffffffffffffffffff1690602001909291905050506112f3565b005b6105e56004803603604081101561053857600080fd5b81019080803590602001909291908035906020019064010000000081111561055f57600080fd5b82018360208201111561057157600080fd5b8035906020019184600183028401116401000000008311171561059357600080fd5b91908080601f016020809104026020016040519081016040528093929190818152602001838380828437600081840152601f19601f8201169050808301925050505050505091929192905050506114a9565b005b6106a0600480360360208110156105fd57600080fd5b810190808035906020019064010000000081111561061a57600080fd5b82018360208201111561062c57600080fd5b8035906020019184600183028401116401000000008311171561064e57600080fd5b91908080601f016020809104026020016040519081016040528093929190818152602001838380828437600081840152601f19601f8201169050808301925050505050505091929192905050506115a5565b6040518082815260200191505060405180910390f35b6106e2600480360360208110156106cc57600080fd5b8101908080359060200190929190505050611780565b6040518080602001828103825283818151815260200191508051906020019080838360005b83811015610722578082015181840152602081019050610707565b50505050905090810190601f16801561074f5780820380516001836020036101000a031916815260200191505b509250505060405180910390f35b6108166004803603602081101561077357600080fd5b810190808035906020019064010000000081111561079057600080fd5b8201836020820111156107a257600080fd5b803590602001918460018302840111640100000000831117156107c457600080fd5b91908080601f016020809104026020016040519081016040528093929190818152602001838380828437600081840152601f19601f82011690508083019250505050505050919291929050505061183b565b604051808215151515815260200191505060405180910390f35b6109096004803603604081101561084657600080fd5b81019080803573ffffffffffffffffffffffffffffffffffffffff1690602001909291908035906020019064010000000081111561088357600080fd5b82018360208201111561089557600080fd5b803590602001918460018302840111640100000000831117156108b757600080fd5b91908080601f016020809104026020016040519081016040528093929190818152602001838380828437600081840152601f19601f8201169050808301925050505050505091929192905050506118b5565b604051808215151515815260200191505060405180910390f35b6109dc6004803603602081101561093957600080fd5b810190808035906020019064010000000081111561095657600080fd5b82018360208201111561096857600080fd5b8035906020019184600183028401116401000000008311171561098a57600080fd5b91908080601f016020809104026020016040519081016040528093929190818152602001838380828437600081840152601f19601f82011690508083019250505050505050919291929050505061198d565b604051808215151515815260200191505060405180910390f35b6109fe611a0c565b6040518082815260200191505060405180910390f35b610acd60048036036020811015610a2a57600080fd5b8101908080359060200190640100000000811115610a4757600080fd5b820183602082011115610a5957600080fd5b80359060200191846001830284011164010000000083111715610a7b57600080fd5b91908080601f016020809104026020016040519081016040528093929190818152602001838380828437600081840152601f19601f820116905080830192505050505050509192919290505050611a19565b6040518082815260200191505060405180910390f35b610b9c60048036036020811015610af957600080fd5b8101908080359060200190640100000000811115610b1657600080fd5b820183602082011115610b2857600080fd5b80359060200191846001830284011164010000000083111715610b4a57600080fd5b91908080601f016020809104026020016040519081016040528093929190818152602001838380828437600081840152601f19601f820116905080830192505050505050509192919290505050611a93565b6040518082815260200191505060405180910390f35b610c6b60048036036020811015610bc857600080fd5b8101908080359060200190640100000000811115610be557600080fd5b820183602082011115610bf757600080fd5b80359060200191846001830284011164010000000083111715610c1957600080fd5b91908080601f016020809104026020016040519081016040528093929190818152602001838380828437600081840152601f19601f820116905080830192505050505050509192919290505050611b88565b6040518082815260200191505060405180910390f35b610c8a8161183b565b151515610cff576040517f08c379a00000000000000000000000000000000000000000000000000000000081526004018080602001828103825260188152602001807f446f63756d656e7420616c72656164792070726573656e74000000000000000081525060200191505060405180910390fd5b7fcb0350340ab60d34e10e6ee459109f7c55febf930dfc9e3be704dd0e52ce32b78183600160405180806020018473ffffffffffffffffffffffffffffffffffffffff1673ffffffffffffffffffffffffffffffffffffffff168152602001838152602001828103825285818151815260200191508051906020019080838360005b83811015610d9c578082015181840152602081019050610d81565b50505050905090810190601f168015610dc95780820380516001836020036101000a031916815260200191505b5094505050505060405180910390a16001819080600181540180825580915050906001820390600052602060002001600090919290919091509080519060200190610e15929190611bff565b5050816000826040518082805190602001908083835b602083101515610e505780518252602082019150602081019050602083039250610e2b565b6001836020036101000a038019825116818451168082178552505050505050905001915050908152602001604051809103902060000160006101000a81548173ffffffffffffffffffffffffffffffffffffffff021916908373ffffffffffffffffffffffffffffffffffffffff16021790555060016000826040518082805190602001908083835b602083101515610efe5780518252602082019150602081019050602083039250610ed9565b6001836020036101000a0380198251168184511680821785525050505050509050019150509081526020016040518091039020600101819055505050565b600181815481101515610f4b57fe5b906000526020600020016000915090508054600181600116156101000203166002900480601f016020809104026020016040519081016040528092919081815260200182805460018160011615610100020316600290048015610fef5780601f10610fc457610100808354040283529160200191610fef565b820191906000526020600020905b815481529060010190602001808311610fd257829003601f168201915b505050505081565b6110008161183b565b1515611074576040517f08c379a00000000000000000000000000000000000000000000000000000000081526004018080602001828103825260188152602001807f446f63756d656e74206861736820697320696e76616c6964000000000000000081525060200191505060405180910390fd5b600061107f82611a93565b101515156110f5576040517f08c379a000000000000000000000000000000000000000000000000000000000815260040180806020018281038252600e8152602001807f526174696e6720696e76616c696400000000000000000000000000000000000081525060200191505060405180910390fd5b6110fe81611a93565b6064026000826040518082805190602001908083835b6020831015156111395780518252602082019150602081019050602083039250611114565b6001836020036101000a03801982511681845116808217855250505050505090500191505090815260200160405180910390206004018190555050565b600080600090505b6000846040518082805190602001908083835b6020831015156111b65780518252602082019150602081019050602083039250611191565b6001836020036101000a0380198251168184511680821785525050505050509050019150509081526020016040518091039020600201805490508110156112e7578273ffffffffffffffffffffffffffffffffffffffff166000856040518082805190602001908083835b6020831015156112465780518252602082019150602081019050602083039250611221565b6001836020036101000a03801982511681845116808217855250505050505090500191505090815260200160405180910390206002018281548110151561128957fe5b9060005260206000200160009054906101000a900473ffffffffffffffffffffffffffffffffffffffff1673ffffffffffffffffffffffffffffffffffffffff1614156112da5760019150506112ed565b808060010191505061117e565b50600090505b92915050565b6112fc8261198d565b151515611371576040517f08c379a000000000000000000000000000000000000000000000000000000000815260040180806020018281038252601a8152602001807f526576696577696e672068617665206265656e20636c6f73656400000000000081525060200191505060405180910390fd5b61137b8282611176565b1515156113d3576040517f08c379a0000000000000000000000000000000000000000000000000000000008152600401808060200182810382526029815260200180611ca56029913960400191505060405180910390fd5b6000826040518082805190602001908083835b60208310151561140b57805182526020820191506020810190506020830392506113e6565b6001836020036101000a03801982511681845116808217855250505050505090500191505090815260200160405180910390206002018190806001815401808255809150509060018203906000526020600020016000909192909190916101000a81548173ffffffffffffffffffffffffffffffffffffffff021916908373ffffffffffffffffffffffffffffffffffffffff160217905550505050565b6000821180156114ba5750600a8211155b151561152e576040517f08c379a000000000000000000000000000000000000000000000000000000000815260040180806020018281038252600e8152602001807f496e76616c696420526174696e6700000000000000000000000000000000000081525060200191505060405180910390fd5b816000826040518082805190602001908083835b6020831015156115675780518252602082019150602081019050602083039250611542565b6001836020036101000a0380198251168184511680821785525050505050509050019150509081526020016040518091039020600301819055505050565b60006115b08261183b565b1515611624576040517f08c379a00000000000000000000000000000000000000000000000000000000081526004018080602001828103825260188152602001807f446f63756d656e74206861736820697320696e76616c6964000000000000000081525060200191505060405180910390fd5b600080836040518082805190602001908083835b60208310151561165d5780518252602082019150602081019050602083039250611638565b6001836020036101000a0380198251168184511680821785525050505050509050019150509081526020016040518091039020600401541015151561170a576040517f08c379a000000000000000000000000000000000000000000000000000000000815260040180806020018281038252600c8152602001807f436f737420696e76616c6964000000000000000000000000000000000000000081525060200191505060405180910390fd5b6000826040518082805190602001908083835b602083101515611742578051825260208201915060208101905060208303925061171d565b6001836020036101000a0380198251168184511680821785525050505050509050019150509081526020016040518091039020600401549050919050565b606060018281548110151561179157fe5b906000526020600020018054600181600116156101000203166002900480601f01602080910402602001604051908101604052809291908181526020018280546001816001161561010002031660029004801561182f5780601f106118045761010080835404028352916020019161182f565b820191906000526020600020905b81548152906001019060200180831161181257829003601f168201915b50505050509050919050565b6000806000836040518082805190602001908083835b6020831015156118765780518252602082019150602081019050602083039250611851565b6001836020036101000a038019825116818451168082178552505050505050905001915050908152602001604051809103902060010154149050919050565b60008273ffffffffffffffffffffffffffffffffffffffff166000836040518082805190602001908083835b60208310151561190657805182526020820191506020810190506020830392506118e1565b6001836020036101000a038019825116818451168082178552505050505050905001915050908152602001604051809103902060000160009054906101000a900473ffffffffffffffffffffffffffffffffffffffff1673ffffffffffffffffffffffffffffffffffffffff1614156119825760019050611987565b600090505b92915050565b600060056000836040518082805190602001908083835b6020831015156119c957805182526020820191506020810190506020830392506119a4565b6001836020036101000a03801982511681845116808217855250505050505090500191505090815260200160405180910390206002018054905010159050919050565b6000600180549050905090565b600080826040518082805190602001908083835b602083101515611a525780518252602082019150602081019050602083039250611a2d565b6001836020036101000a0380198251168184511680821785525050505050509050019150509081526020016040518091039020600201805490509050919050565b6000611a9e8261183b565b1515611b12576040517f08c379a00000000000000000000000000000000000000000000000000000000081526004018080602001828103825260188152602001807f446f63756d656e74206861736820697320696e76616c6964000000000000000081525060200191505060405180910390fd5b6000826040518082805190602001908083835b602083101515611b4a5780518252602082019150602081019050602083039250611b25565b6001836020036101000a0380198251168184511680821785525050505050509050019150509081526020016040518091039020600301549050919050565b600080826040518082805190602001908083835b602083101515611bc15780518252602082019150602081019050602083039250611b9c565b6001836020036101000a0380198251168184511680821785525050505050509050019150509081526020016040518091039020600101549050919050565b828054600181600116156101000203166002900490600052602060002090601f016020900481019282601f10611c4057805160ff1916838001178555611c6e565b82800160010185558215611c6e579182015b82811115611c6d578251825591602001919060010190611c52565b5b509050611c7b9190611c7f565b5090565b611ca191905b80821115611c9d576000816000905550600101611c85565b5090565b9056fe596f75206861766520616c72656164792072657669657765642074686973207375626d697373696f6ea165627a7a72305820dadea4700327586f1ca4a33caa9fb314ac0e38c6c4024ecbee14c9085f3abcdd0029",
  "source": "pragma solidity ^0.5.0;\n\ncontract MainContract {\n\t\n\t// Document storage struct\n\tstruct Submission {\n        address index;\n        uint status;\n        address[] reviewers;\n        uint rating;\n        uint cost;\n    }\n  \n    // Document structs are mapped to hash values\n    mapping(string => Submission) private submissions;\n    string[] public hashes;\n\n    event AddNewFile(string docHash, address userAddress, uint status);\n    \n    // Function to insert a document in mapping\n    function newSubmission(address userAddress, string memory docHash) public \n    {\n        require(!isPresent(docHash), \"Document already present\");\n        emit AddNewFile(docHash, userAddress, 1);\n        hashes.push(docHash);\n        submissions[docHash].index = userAddress;\n        submissions[docHash].status = 1;\n    }\n\n    // Function to check if a document is already present\n    function isPresent(string memory docHash) public view returns(bool)\n    {\n        return (submissions[docHash].status == 0);\n    }\n\n    // Function to check if given address is owner of document\n    function isOwner(address userAddress, string memory h) public view returns(bool)\n    {\n        if (submissions[h].index == userAddress) \n        {\n            return true;\n        }\n        return false;\n    }  \n\n    // Function to return hash value of document\n    function displayHash(uint num) public view returns(string memory)\n    {\n        return hashes[num];\n    }\n\n    // Function to return status of document\n    function displaySubmissionStatus(string memory docHash) public view returns(uint status)\n    {\n        return submissions[docHash].status;\n    }\n\n    // Function to return count of uploaded documents\n    function displayDocCount() public view returns(uint)\n    {\n        return hashes.length;\n    }\n        \n    // Function to upvote a document by reviewer\n    function Review(string memory docHash, address reviewer) public\n    {\n        require(!isReviewed(docHash), \"Reviewing have been closed\");\n        require(!hasReviewed(docHash, reviewer), \"You have already reviewed this submission\");\n        submissions[docHash].reviewers.push(reviewer);\n    }\n    \n    // Function to check if a reviewer has already voted for a document\n    function hasReviewed(string memory docHash, address addr) public view returns(bool)\n    {\n        for(uint i = 0;i < submissions[docHash].reviewers.length;i++)\n        {\n            if(submissions[docHash].reviewers[i] == addr)\n            {\n                return true;\n            }\n        }\n        return false;\n    }\n    \n    // Function to check if a document has been approved/disapproved\n    function isReviewed(string memory docHash) public view returns (bool)\n    {\n        return (submissions[docHash].reviewers.length >= 5);\n    }\n    \n    // Function to get number of upvotes\n    function getCount(string memory docHash) public view returns(uint)\n    {\n        return (submissions[docHash].reviewers.length);\n    }\n\n    function setRating(uint r, string memory docHash) public \n    {\n        require(r > 0 && r <= 10, \"Invalid Rating\");\n        submissions[docHash].rating = r;\n    }\n\n    function getRating(string memory docHash) public view returns(uint)\n    {\n        require(isPresent(docHash), \"Document hash is invalid\");\n        return submissions[docHash].rating;\n    }\n\n    function setCost(string memory docHash) public\n    {\n        require(isPresent(docHash), \"Document hash is invalid\");\n        require(getRating(docHash) >= 0, \"Rating invalid\");\n        submissions[docHash].cost = 100*getRating(docHash);\n    }\n\n    function getCost(string memory docHash) public view returns(uint)\n    {\n        require(isPresent(docHash), \"Document hash is invalid\");\n        require(submissions[docHash].cost >= 0, \"Cost invalid\");\n        return submissions[docHash].cost;\n    }\n    \n}",
  "sourcePath": "/home/sangat/Documents/Blockchain/Ethereum/dApps/ReviewMe/contracts/MainContract.sol",
  "compiler": {
    "name": "solc",
    "version": "0.5.2+commit.1df8f40c.Emscripten.clang"
  },
  "schemaVersion": "3.0.1",
  "updatedAt": "2019-03-19T14:57:36.581Z",
  "devdoc": {
    "methods": {}
  },
  "userdoc": {
    "methods": {}
  }
}